S0220000496E746572666163696E67204D432077697468204C6170746F702E737265637C
S11300000C942A000C9447000C9447000C9447006D
S11300100C9447000C9447000C9447000C94470040
S11300200C9447000C9447000C9447000C94470030
S11300300C9447000C9447000C9447000C94470020
S11300400C9447000C9447000C9447000C94470010
S11300500C94470011241FBECFE5D8E0DEBFCDBF0E
S113006010E0A0E6B0E0E0E4F8E002C005900D92F4
S1130070A036B107D9F710E0A0E6B0E001C01D92A8
S1130080A036B107E1F70E94CC020C941E040C9434
S11300900000843409F471C0853448F4823499F141
S11300A0833408F04DC0813409F083C00FC0823618
S11300B051F1833620F4813609F07BC007C08336C2
S11300C009F43EC0843609F074C057C0413069F465
S11300D02AB381E090E0AC0102C0440F551F6A9539
S11300E0E2F7BA01622B6ABB08952AB381E090E07B
S11300F0AC0102C0440F551F6A95E2F7BA0160953E
S113010062236ABB0895413069F427B381E090E02B
S1130110AC0102C0440F551F6A95E2F7BA01622B85
S113012067BB089527B381E090E0AC0102C0440F9F
S1130130551F6A95E2F7BA016095622367BB08957B
S1130140413069F424B381E090E0AC0102C0440F73
S1130150551F6A95E2F7BA01622B64BB089524B374
S113016081E090E0AC0102C0440F551F6A95E2F7AC
S1130170BA016095622364BB0895413069F421B3E8
S113018081E090E0AC0102C0440F551F6A95E2F78C
S1130190BA01622B61BB089521B381E090E0AC0108
S11301A002C0440F551F6A95E2F7BA0160956223B5
S11301B061BB0895843409F471C0853448F48234F1
S11301C099F1833408F04DC0813409F083C00FC025
S11301D0823651F1833620F4813609F07BC007C0A2
S11301E0833609F43EC0843609F074C057C04130E8
S11301F069F42BB381E090E0AC0102C0440F551FB9
S11302006A95E2F7BA01622B6BBB08952BB381E0C8
S113021090E0AC0102C0440F551F6A95E2F7BA01A1
S1130220609562236BBB0895413069F428B381E083
S113023090E0AC0102C0440F551F6A95E2F7BA0181
S1130240622B68BB089528B381E090E0AC0102C042
S1130250440F551F6A95E2F7BA016095622368BBA3
S11302600895413069F425B381E090E0AC0102C007
S1130270440F551F6A95E2F7BA01622B65BB0895D6
S113028025B381E090E0AC0102C0440F551F6A958C
S1130290E2F7BA016095622365BB0895413069F4C1
S11302A022B381E090E0AC0102C0440F551F6A956F
S11302B0E2F7BA01622B62BB089522B381E090E0B9
S11302C0AC0102C0440F551F6A95E2F7BA0160956C
S11302D0622362BB0895843409F43DC0853440F43C
S11302E08234F9F0833450F5813409F040C00CC0F5
S11302F08236B9F0833618F48136C9F505C08336E1
S1130300E9F08436A1F527C02BB381E090E0AC017D
S113031002C0440F551F6A95E2F7BA0162276BBB0E
S1130320089528B381E090E0AC0102C0440F551F4A
S11303306A95E2F7BA01622768BB089525B381E0A4
S113034090E0AC0102C0440F551F6A95E2F7BA0170
S1130350622765BB089522B381E090E0AC0102C03E
S1130360440F551F6A95E2F7BA01622762BB0895EC
S11303708434B1F1853438F48234E1F0833428F5DF
S11303808134C1F50CC08236A9F0833618F4813665
S113039089F505C08336C9F0843661F521C029B3D7
S11303A030E0C90102C0959587956A95E2F7982FC8
S11303B0917020C026B330E0C90102C0959587959D
S11303C06A95E2F7982F917015C023B330E0C90104
S11303D002C0959587956A95E2F7982F91700AC0A7
S11303E020B330E0C90102C0959587956A95E2F77C
S11303F0982F9170892F08958434D9F0853438F476
S1130400823499F0833498F48134A1F40CC0823698
S113041061F0833618F4813669F405C0833639F007
S1130420843641F406C06ABB089567BB089564BB73
S1130430089561BB08958434D9F0853438F4823446
S113044099F0833498F48134A1F40CC0823661F0BD
S1130450833618F4813669F405C0833639F084365E
S113046041F406C06BBB089568BB089565BB08954D
S113047062BB0895843409F1853438F48234A9F0D8
S11304808334B8F48134E1F40CC0823671F08336DD
S113049018F48136A9F405C0833659F0843681F402
S11304A00CC08BB380958BBB089588B3809588BBB3
S11304B0089585B3809585BB089582B3809582BBEA
S11304C008958434D9F0853438F4823499F083342F
S11304D098F48134A1F40CC0823661F0833618F4A8
S11304E0813669F405C0833639F0843641F406C098
S11304F099B305C096B303C093B301C090B3892FD9
S113050008950E94DA000895CF93DF93C82FD62F61
S1130510462F417060E00E94DA004D2F46954170ED
S11305208C2F61E00E94DA004D2F4695469541706C
S11305308C2F62E00E94DA00D695D695D6954D2F81
S113054041708C2F63E00E94DA00DF91CF9108950F
S1130550CF93DF93C82FD62F462F417064E00E94BB
S1130560DA004D2F469541708C2F65E00E94DA0029
S11305704D2F4695469541708C2F66E00E94DA0017
S1130580D695D695D6954D2F41708C2F67E00E9455
S1130590DA00DF91CF91089560E875E280E090E0A1
S11305A00E94B8030E944F03C0E011E00E94E003E0
S11305B0D82FCF5FC13129F482E0612F0E949D03BF
S11305C005C0C13219F40E943B03C12F8D2F0E9434
S11305D01E03ECCF82E460E041E00E94DA008FE980
S11305E09FE00197F1F700C0000082E460E040E082
S11305F00E94DA008FE99FE00197F1F700C0000044
S11306000895CF93C82F82E461E040E00E94DA00AD
S11306106C2F62956F7081E40E94A8020E94EA0226
S113062081E46C2F0E94A8020E94EA028FEC97E0FA
S11306300197F1F700C00000CF910895CF93C82F20
S113064082E461E041E00E94DA006C2F62956F70F1
S113065081E40E94A8020E94EA0281E46C2F0E94B5
S1130660A8020E94EA028FEC97E00197F1F700C01C
S11306700000CF91089581E00E9401038FE496E485
S11306800197F1F700C00000089582E00E94010381
S11306908FE496E40197F1F700C0000008958FE716
S11306A099EAA3E081509040A040E1F700C0000027
S11306B081E464E041E00E94490081E465E041E0B6
S11306C00E94490081E466E041E00E94490081E41F
S11306D067E041E00E94490082E460E041E00E945A
S11306E0490082E461E041E00E94490082E462E062
S11306F041E00E94490082E462E040E00E94DA00A6
S11307000E94450388E20E9401038EE00E940103D7
S11307100E943B0386E00E9401030895CF93DF9378
S1130720EC018881882331F021960E941E0389916F
S11307308823D9F7DF91CF910895282F21502230B3
S113074070F4613170F4662371F0813019F4962FDE
S113075091580AC0823041F4962F915405C090E814
S113076003C090E801C090E8892F0E940103089516
S1130770DC01CB01880F991FAA1FBB1F880F991F8B
S1130780AA1FBB1F9C01AD01220F331F441F551F1D
S1130790220F331F441F551F60E072E18AE790E087
S11307A00E94FC032150304030BD29B9539A549A19
S11307B086E880BD08959BB195FFFDCF8CB908955F
S11307C05F9BFECF8CB10895CF93DF93EC018881BA
S11307D0882379F021960E94DB038FEF90E7A2E053
S11307E081509040A040E1F700C000008991882327
S11307F091F7DF91CF910895A1E21A2EAA1BBB1B9A
S1130800FD010DC0AA1FBB1FEE1FFF1FA217B307D8
S1130810E407F50720F0A21BB30BE40BF50B661FEE
S1130820771F881F991F1A9469F7609570958095B2
S113083090959B01AC01BD01CF010895F894FFCFC1
S9030000FC
